:020000040800F2
:10000000605F002005030008132400082523000872
:1000100011240008AD180008812F0008000000001E
:100020000000000000000000000000004D02000879
:10003000711C000800000000A102000885260008CD
:100040001F0300081F0300081F0300081F03000808
:100050001F0300081F0300081F0300081F030008F8
:100060001F0300081F0300081F0300081F030008E8
:100070001F0300081F0300081F0300081F030008D8
:100080001F0300081F0300081F0300081F030008C8
:100090001F0300081F0300081F0300081F030008B8
:1000A0001F0300081F0300081F0300081F030008A8
:1000B0001F030008492800081F0300081F03000849
:1000C0001F0300081F0300081F0300081F03000888
:1000D0001F030008512B00081F030008B12B000864
:1000E0001F0300081F0300081F0300081F03000868
:1000F0001F0300081F0300081F0300081F03000858
:100100001F0300081F0300081F0300081F03000847
:100110001F0300081F0300081F0300081F03000837
:100120001F0300081F0300081F0300081F03000827
:100130001F0300081F0300081F0300081F03000817
:100140001F0300081F0300081F0300081F03000807
:100150001F0300081F0300081F0300081F030008F7
:100160001F0300081F0300081F0300081F030008E7
:100170001F0300081F0300081F0300081F030008D7
:100180001F0300081F03000800F002F800F04FF8FA
:100190000AA090E8000C82448344AAF10107DA45E2
:1001A00001D100F044F8AFF2090EBAE80F0013F0E5
:1001B000010F18BFFB1A43F001031847BC5A000097
:1001C000DC5A0000103A24BF78C878C1FAD8520728
:1001D00024BF30C830C144BF04680C6070470000C1
:1001E0000023002400250026103A28BF78C1FBD840
:1001F000520728BF30C148BF0B607047662905F021
:10020000EE84642900F0EA80732900F01C85002048
:1002100070471FB505F0D9FC00F05EFD040000201A
:10022000002105F0C7F8E0601FBD10B510BD00F05B
:1002300053FE1146FFF7EDFF02F0D8FF00F071FE0C
:1002400003B4FFF7F2FF03BC02F073FF2A4B1968F7
:100250000868B0E8F04F80F30988BFF36F8F4FF064
:10026000000080F311887047000000000648006815
:10027000006880F3088862B661B6BFF34F8FBFF3A2
:100280006F8F00DF00BF00BF08ED00E0DFF80C005B
:10029000016841F470010160704700BF88ED00E023
:1002A000EFF30980BFF36F8F134B1A681EF0100F26
:1002B00008BF20ED108A20E9F04F106008B44FF01D
:1002C000500080F31188BFF34F8FBFF36F8F04F09E
:1002D0002FFA4FF0000080F3118808BC19680868F5
:1002E000B0E8F04F1EF0100F08BFB0EC108A80F39A
:1002F0000988BFF36F8F704774000020EFF305800B
:10030000704700000948804709480047FEE7FEE7BC
:10031000FEE7FEE7FEE7FEE7FEE7FEE7FEE7FEE7B5
:1003200004480549054A064B704700009926000815
:100330008901000860590020605F0020605B002098
:10034000605B0020704700000FB4044910B503AA99
:10035000029800F07DFC10BC5DF814FB60000020EA
:100360000FB41CB5074B06AA7B446946009005985C
:1003700000F03FFC0020694600F04EFC1CBC5DF81C
:1003800014FB0000AD08000070B50C460546012ABC
:1003900005D02878800600D5EA69002302E0012311
:1003A00005E05B1C934202D2E05C0028F9D1A86909
:1003B000E618C01AA861286A184428622846AFF3D4
:1003C000008004E0D5E9012114F8010B9047B44204
:1003D000F8D32846AFF3008070BD00002DE9F0414E
:1003E0000646002410687529314616A510D0AFF3D3
:1003F0000080002802DA404213A507E031688A072E
:1004000001D512A502E0490704D511A5012401E098
:10041000AFF3008000210A2206F1240709E0B0FBB7
:10042000F2FCB0FBF2F302FB1C00303078541846AB
:10043000491C0028F3D123462A463046BDE8F04146
:1004400000F06BB9000000002D0000002B00000040
:10045000200000002DE9F0474FF0000A89460446CD
:10046000C0F820A02046E1688847002876D02528DB
:1004700006D0D4E901219047206A401C2062F1E7B0
:10048000E168204600258847C4F81CA006460027DE
:10049000C4F818A02A2E09D0304602F043FE38B323
:1004A00004EB8708303EC8F8186019E059F8041BBF
:1004B000204604EB87029161E1688847012F0646D8
:1004C00018D1E069002820DA25F020051DE0D8F8D1
:1004D000180000EB800006EB40003038C8F8180028
:1004E0002046E1688847064602F01CFE0028EED14F
:1004F000012F0AD02E2E08D12046E16888477F1CA4
:100500000646022F45F02005C4DBA069002803DA67
:10051000404245F00105A061E80701D025F0100533
:10052000B6B1A6F14100192802D8203645F400657D
:100530004A463146204625604D46FFF75FFE58B1DA
:10054000012806D0ED1D25F0070000F1080989E714
:1005500004E005F1040985E730468AE7206ABDE832
:10056000F08730B505460B462A4613F8014B12F8C2
:10057000010B08B1A042F8D01CB1002802D06D1CBC
:10058000F1E7284630BD40EA0103024630B59B073B
:1005900010D14FF0013400E008C208C91D1B9D4373
:1005A00015EAC41FF8D013F0FF0102F8011B0DD0AB
:1005B0001B0AF8E711F8013B002B02F8013B05D0BC
:1005C00011F8013B002B02F8013BF3D130BD421E74
:1005D00012F8013F002BFBD111F8013B002B02F870
:1005E000013BF9D17047032A40F2308010F0030C30
:1005F00000F0158011F8013BBCF1020F624498BF76
:1006000011F801CB00F8013B38BF11F8013BA2F112
:10061000040298BF00F801CB38BF00F8013B11F08D
:10062000030300F02783083AC0F0088051F8043B28
:10063000083A51F804CBA0E80810F5E7121D5CBF9A
:1006400051F8043B40F8043BAFF30080D20724BFCD
:1006500011F8013B11F801CB48BF11F8012B24BF61
:1006600000F8013B00F801CB48BF00F8012B7047B0
:1006700002F0FF0343EA032242EA024200F002B81A
:100680004FF000020429C0F0128010F0030C00F0BB
:100690001B80CCF1040CBCF1020F18BF00F8012B39
:1006A000A8BF20F8022BA1EB0C0100F00DB85FEA07
:1006B000C17C24BF00F8012B00F8012B48BF00F8D3
:1006C000012B70474FF0000200B513469446964642
:1006D000203922BFA0E80C50A0E80C50B1F1200155
:1006E000BFF4F7AF090728BFA0E80C5048BF0CC003
:1006F0005DF804EB890028BF40F8042B08BF704761
:1007000048BF20F8022B11F0804F18BF00F8012BD2
:10071000704770477047704770472DE9F0470D46A6
:1007200099469246044600F124080168880604D5DB
:10073000E06921F01001216000E00120A84201DD04
:10074000471B00E00027A1697A1902EB0900081A8B
:10075000A0612078C00602D42046AFF300800026B6
:1007600008E0D4E901211AF806009047206A401CED
:10077000761C20624E45F4DB2078C0060AD5204660
:10078000AFF3008006E0D4E9012130209047206AD1
:10079000401C2062381EA7F10107F4DC07E0D4E911
:1007A000012118F805009047206A401C2062281E8D
:1007B000A5F10105F3DC2046AFF3008020780006A8
:1007C00002D50220BDE8F0870120FBE770472DE944
:1007D000FF4F0C461E464FF0FF378BB0D2E90001A9
:1007E000DDF860800A908A46C1F30A5505B93D4696
:1007F000002108464FF00000BAF1000F00F440005D
:1008000005DA00EB80004FF4400101EA50004FEAA6
:100810009059B9F1010F00DDB9460A9850EA4A0033
:100820000ED044F61050A5F2FF3545432F14B8F111
:10083000000F1ED07542291E1EDDC9F100021CE00A
:10084000B8F1010F4FF0000001D0302103E0F24376
:1008500005E02154401CB042FBDB30460022002161
:1008600021540B99C1F80880C1E900200FB0BDE800
:10087000F08FBD1B6D1CDEE74A4600DA694206A810
:1008800000F0B4FA06AB93E8070003AB83E8070077
:1008900050460A9900F08EFB8DE80700A0F5005045
:1008A0001F3800900398002D09DD42F21F014A46CF
:1008B000084403A90390684600F0EDFD08E0A0F5A8
:1008C00000504A461F3803A90390684600F0F7FD20
:1008D0008DE807000004000C03D04FF0FF30410802
:1008E00000E01046B8F1000F03D000220092154638
:1008F0001EE0751E05D400F0F3F9303262556D1E0E
:10090000F9D5B3460122084302D000227F1C04E03F
:100910002078302801D100227F1E002A099786D036
:100920001DE0112D07DA00F0DBF9303262556D1C45
:1009300050EA0102F5D1084302D00098C8B10EE098
:100940000021681E05E0235C625C63542254401E53
:10095000491C8142F7DBAB46A81B401E09900020D2
:1009600004F80B000B98099AC0F80880C0E9002B26
:100970007CE711264FF0000859E72DE9F04F884633
:100980000446D21D22F0070191B0D1E90001CDE962
:100990000A0102F0AFFB02460B98C00F01D02D20D8
:1009A00007E02068810701D52B2002E0202101EA21
:1009B000C000032A099001D0072A05DB03464146FF
:1009C000204600F0D3F90BE12078800601D5E069DC
:1009D00000E00620B8F1650F814606D0B8F1660F39
:1009E00018D0B8F1670F70D131E00020B9F1110FC4
:1009F000009001DB112301E009F101030AAA01A91A
:100A00000CA8FFF7E4FEDDE90C70002609F10105F2
:100A1000834647E001204B4600904FF000470AAA6A
:100A200001A90CA8FFF7D3FEDDE90DB00C995D46D6
:100A3000002610B909F101000D18B9EB050003D427
:100A4000C0F1FF3609F10105A5EB09002BE0B9F172
:100A5000010F01DA4FF001090020B9F1110F0090E8
:100A6000484601DD112300E003460AAA01A90CA8AB
:100A7000FFF7ADFEDDE90C704D4600268346207879
:100A800000070AD4AB4500DA5D4601A8012D04DD5C
:100A9000411911F8011C302907D04F4502DA17F12E
:100AA000040F04DA012082460FE06D1EEEE7002FEE
:100AB00002DCED1B3E4403E0781CA84200DD7D1CF7
:100AC000B81B00F1010A4FF000472078000703D45B
:100AD000AA4501DB4FF0FF3A0021B7F1004F0DF1BD
:100AE00043088DF8431024D002202B23002F01DA75
:100AF0007F422D230A21021EA0F1010000DC5FB11C
:100B000097FBF1FC97FBF1F201FB1C7C17460CF103
:100B1000300C08F801CDEEE7A8F101000370218840
:100B2000090501D5452100E06521A0F1010800F883
:100B3000011C09980FA9A1EB0807FF1D00B10120B6
:100B4000411901EBEA70A1693844081A401EA061FE
:100B50002078C00602D42046AFF30080099828B15F
:100B6000D4E901219047206A401C20622078C00609
:100B700022D52046AFF300801EE0002E04DBB345F3
:100B800002DD01A8805D00E03020D4E9012190471A
:100B9000206A401C2062761CAAF101005FEA000A6C
:100BA0000AD100F099F8C0680168405CD4E90121DD
:100BB0009047206A401C2062281EA5F10105DCDC5C
:100BC00007E0D4E9012118F8010B9047206A401C86
:100BD0002062381EA7F10107F3DC2046AFF3008046
:100BE000032011B043E6000001694A1C0261087845
:100BF000704700B58FB0CDE901310021059105495D
:100C00007944CDE9031011466846FFF723FC0FB085
:100C100000BD0000E5FFFFFF0A6802F8010B0A6053
:100C2000704710B5436913B1AFF3008001E0FFF7DF
:100C3000ABFB012010BD127800F124010A700022E4
:100C40004A700122EDE711684FF0FF32E9E700003A
:100C5000074B70B50D467B44FFF7CBFF0446284693
:100C600000F032F910B14FF0FF3070BD204670BD7A
:100C70007F25000010B5203AC0F00B80B1E8185075
:100C8000203AA0E81850B1E81850A0E81850BFF476
:100C9000F5AF5FEA027C24BFB1E81850A0E8185015
:100CA00044BF18C918C0BDE810405FEA827C24BF69
:100CB00051F8043B40F8043B08BF7047D20728BFF7
:100CC00031F8023B48BF11F8012B28BF20F8023B46
:100CD00048BF00F8012B7047004870471C5900209E
:100CE00030B5B0F10A024FEA900E71F100034EEAFE
:100CF000817EB0EB0E0061EB91014FEA101E4EEACF
:100D0000017E10EB0E0041EB11114FEA102E4EEA5E
:100D1000016E10EB0E0041EB11214FEA104E4EEA2E
:100D2000014E10EB0E0041EB1141401841F1000162
:100D30004FEAD00040EA41704FEAD10110EB800544
:100D40004FEA810444EA907444EB01046D1944EBCA
:100D50000404521BA3414FF0000348BF0A3200D5E0
:100D600030BD401C41F1000130BD00002DE9F041D3
:100D70001F46044603260168072A01F4006004DBCD
:100D800008B116A505E016A503E008B115A500E019
:100D900015A521F010002060A069C01EA0610FB150
:100DA000401EA0612046AFF300804FB1D4E901217D
:100DB00038469047206A401C2062C01C206206E032
:100DC000206AFAE7D4E9012115F8010B9047761E55
:100DD000F8D22046AFF30080BDE8F0814E414E00CE
:100DE0006E616E00494E4600696E66002DE9F0475F
:100DF000814616468AB0334878440DC88DE80D0008
:100E000030487844801C03AC0DC884E80D0041F6DE
:100E10009B300844372190FBF1F290FBF1F5A5F1EE
:100E2000800501FB12041B3C02D56442012000E056
:100E30000020DFF890A080460027FA44AAF1BE0AFD
:100E40000DE0E00709D03246684607EB47010AEBA0
:100E5000810100F034FB8DE8070064107F1C002C3A
:100E6000EFD1184F7F44AC3F18E0E80714D007EBF0
:100E700004100DF1180A90E80E008AE80E00C06810
:100E8000F04201D198190890324606A903A800F053
:100E900016FB03AB83E807006D10641C002DE4D142
:100EA00032466946B8F1000F03A802D000F0F3FA09
:100EB00001E000F004FBC9E90001C9F808200AB00C
:100EC000BDE8F087644E0000007B00F080007047B2
:100ED00000487047FC5800207546FFF7F9FFAE4602
:100EE00005006946534620F00700854618B020B536
:100EF000FFF716FABDE820404FF000064FF000075C
:100F00004FF000084FF0000B21F00701AC46ACE8B1
:100F1000C009ACE8C009ACE8C009ACE8C0098D461E
:100F2000704710B50446AFF300802046BDE810407E
:100F3000FFF786B94FF0013C50F8042B51F8043B01
:100F40009A4221D1A2EB0C03934313EACC1317D19D
:100F500050F8042B51F8043B9A4215D1A2EB0C0334
:100F6000934313EACC130BD150F8042B51F8043BF4
:100F70009A4209D1A2EB0C03934313EACC13DBD0C2
:100F80004FF00000704700BFD01A01BAB1FA81F1EA
:100F900001F0180122FA01F0CB40C1F12001DBB2CF
:100FA000C0B2C01A2CFA01F3D11A914311EAC3114D
:100FB000E6D170475FEA400C08BF91F0000F4FEA9E
:100FC0008C234FEAC12243EA51514FEA1C5018BF0B
:100FD00000F5F0404FEA300018BF41F000415FEAF1
:100FE0006C5C00F02980BCF1FF3F08BF40F08040FE
:100FF0007047130C06BF12044FF0100C4FF0000C9A
:10100000130E04BF12020CF1080C130F04BF1201DF
:101010000CF1040C930F04BF92000CF1020CD30FDF
:1010200004BF52000CF1010C11464FF00002A0F178
:101030001F00A0EB0C00704711F0004F08BF704775
:1010400031F000413FF4D5AF0B0C06BF09044FF05F
:10105000100C4FF0000C0B0E04BF09020CF1080C31
:101060000B0F04BF09010CF1040C8B0F04BF8900A6
:101070000CF1020CCB0F04BF49000CF1010CCCF1B8
:101080002003A0EB0C0022FA03F302FA0CF241EA6F
:10109000030100F10100704720F07F4C80EA03005B
:1010A00023F07F47ACEB070303F57C5300F00040CF
:1010B00003F1FF032DE980494FEA154B09B44FEACC
:1010C000144325EA0B4E24EA03480FF2042606EBEC
:1010D000132749083E785FEA320203FB0667C7F52B
:1010E000000707FB06F64FEA54374FEAD64606F1EB
:1010F000020607FB066CCCF1005C4FEA1C472CEAA9
:10110000074C07FB06F40CFB06F504EB15464FEA0B
:10111000961634BF00204FF000404FEAD13706FB4F
:1011200007FC4FEA1C4C0CFB0BF7D21B03FB0CF724
:1011300061EB07010CFB0EF7B0EB074072EB1742B7
:101140000CFB08F734BFA2EB0742B2EB074261EB9E
:1011500017414FEA0C444FEA910706FB07FC4FEAA0
:101160001C4C0CFB0BF7B0EBC74072EB573203FB88
:101170000CF734BFA2EBC742B2EBC74261EB573169
:101180000CFB0EF7B0EBC70072EB57720CFB08F7C5
:1011900034BFA2EBC702B2EBC70261EB5771039FEA
:1011A0004FEA816141EA921104EBCC044FEAD13756
:1011B0004FEA826206FB07FC42EA90124FEA806027
:1011C0004FEA1C4C0CFB0BF7D21B03FB0CF761EB3B
:1011D00007010CFB0EF7B0EB074072EB17420CFB5C
:1011E00008F734BFA2EB0742B2EB074261EB1741AD
:1011F0004FEA8C554FEA910704EB9C2406FB07FC51
:101200004FEA1C4C0CFB0BF7B0EBC74072EB5732AC
:1012100003FB0CF734BFA2EBC742B2EBC74261EB52
:1012200057310CFB0EF7B0EBC70072EB57720CFB9B
:1012300008F734BFA2EBC702B2EBC70261EB5771EC
:1012400015EB4C254FEA816141EA92114FEA826227
:101250004FEAD13742EA901206FB07FC44F1000442
:101260004FEA80604FEA1C4C0CFB0BF7D21B03FBD0
:101270000CF761EB07010CFB0EF7B0EB074072EBCC
:1012800017420CFB08F734BFA2EB0742B2EB074250
:1012900061EB174115EB1C154FEA813141EA924190
:1012A0004FEA823242EA90424FEA80304FEA0C76AF
:1012B00044F1000448EA03434EEA0B484FF0000EA5
:1012C000B2EB080C71EB030724BF624639464EEBC4
:1012D0000E0E4FF0000B0018524149414BEB0B0B27
:1012E000B2EB080C71EB03077BF1000B24BF6246E5
:1012F00039464EEB0E0E4FF0000B0018524149419B
:101300004BEB0B0BB2EB080C71EB03077BF1000B03
:1013100024BF624639464EEB0E0E51EA020718BF53
:1013200046F0010616EB0E7655F1000254F100016D
:1013300003D5BDE88901BDE80088BDE88901BDE8A5
:101340000048B619524141EB0101A3F10103704776
:1013500080807F7E7D7C7B7A7978777676757473F2
:10136000727171706F6E6E6D6C6C6B6A6A696868B1
:10137000676666656464636362616160605F5F5E47
:101380005E5D5D5C5C5B5B5A5A59595858575756BD
:101390005655555554545353525252515150505022
:1013A0004F4F4F4E4E4D4D4D4C4C4C4B4B4B4A4A74
:1013B0004A494949484848474747474646464545B8
:1013C00045444444444343434342424242414141F1
:1013D000002B26D4770021D01CB54FEA370703B481
:1013E0004FF010004FF010014FF000000FBCBDE8AF
:1013F00010400BF1010BBBF1010F08BF5FEA1707AB
:1014000022BF12F1010211F101014FF0004143F13D
:10141000000300F0004043EA00007047F9D357088A
:10142000DAE746EA064613F1400F4FEA16461FDD9B
:1014300013F1200FDFBF16430A46002120335B4221
:10144000C8D0C3F1200746EA064602FA07F74FEA7A
:10145000164646EA0706C3F1200722FA03F201FA0C
:1014600007F721FA03F14FF0000342EA0702B1E760
:1014700046EA020646EA06464FEA164646EA0106EC
:10148000BCBF46EA0646360C4FF000034FF00002A0
:101490004FF000019EE72DE9C048934630B491E833
:1014A000380007C831EA400C48BF34EA430C03D582
:1014B000FFF7F2FDFFF78CFFF0BCBDE800882DE9D7
:1014C000C048934630B491E8380007C810F0804F08
:1014D00008BF13F0804F03D100F005F8FFF778FF45
:1014E000F0BCBDE8008820F07F4780EA030023F0CD
:1014F0007F4C07EB0C03A3F57C5300F00040A3F1F5
:10150000FE0392F0000F00F0B38095F0000F00F0A2
:1015100077802DE901494FEA11404FEA144621EA4C
:10152000004800FB06FC24EA064708FB06F607FB1A
:1015300008F800FB07F718EB06484CEB164C4FEA8F
:10154000124B18EB07484FEA15464CEB174022EABE
:101550000B4E0BFB06FC25EA06470EFB06F607FBC7
:101560000EFE0BFB07F71EEB064E4CEB164C4FF036
:1015700000061EEB074E4CEB174B18EB0B0840F127
:10158000000018EB0E0B58EB000840F100008F1A1A
:101590004FF000013CBFC943661B14BFB5EB040C00
:1015A00000213CBFC943F61B4FEA17444EEA8E0E9A
:1015B00027EA04454FEA1C4704FB07622CEA074C64
:1015C00005FB07F70CFB05F604FB0CFC16EB0746C6
:1015D00042EB174216EB0C4642EB1C421BEB060695
:1015E00058EB0202414146EA9E0601D5BDE8018959
:1015F000B619524141EB0101A3F10103BDE8018994
:101600004FEA14454FEA114724EA054621EA074C00
:1016100005FB07F406FB07F70CFB06F105FB0CFCCA
:1016200011EB074144EB17444FEA124711EB0C4111
:1016300044EB1C4422EA074C05FB07F206FB07F7C4
:101640000CFB06F605FB0CFC16EB074642EB1742BB
:1016500016EB0C4642EB1C456A1854F1000148BFDA
:101660007047B619524141EB0101A3F101037047E4
:1016700095F0000F37D04FEA11424FEA144721EAA4
:10168000024624EA074C02FB07F106FB07F70CFBB6
:1016900006F402FB0CFC14EB074441EB17414FEA44
:1016A000154714EB0C4441EB1C4125EA074C02FBA7
:1016B00007F506FB07F70CFB06F602FB0CFC16EB26
:1016C000074645EB174516EB0C4645EB1C42121935
:1016D00051F1000148BF7047B619524141EB010179
:1016E000A3F1010370474FEA14454FEA114724EA7A
:1016F000054621EA074C05FB07F106FB07F70CFB43
:1017000006F24FF0000605FB0CFC12EB074241EB22
:10171000174112EB0C4251EB1C4148BF7047921825
:1017200041EB0101A3F1010370470029816802D058
:1017300041F0010101E021F00101816070470000EA
:10174000084B10B5D3F8042307490A40D0E9001428
:101750002143D0E90240044321431143C3F8041359
:1017600010BD000000200140E030FCFFC06C80B2E2
:1017700070470246002012680A4200D001207047DC
:1017800030B542680F4B0C791A400B6842EA0422CC
:101790001343436082680C4B4D791A40D1E90343EF
:1017A00023438C6844EA4504234313438360C26A9D
:1017B000097D22F47002491EC9B242EA0151C16298
:1017C00030BD0000FFFEFFFCFDF7FFC070B507262F
:1017D00009290AD9C568A1F10A0404EB4404A6400A
:1017E000B543A3401D43C56007E0056901EB410413
:1017F000A640B543A3401D4305611F23072A09D214
:10180000446B521E02EB820293409C4391400C4376
:10181000446370BD0D2A09D2046BD21F02EB820211
:1018200093409C4391400C43046370BDC46A0D3ADD
:1018300002EB820293409C4391400C43C46270BD12
:10184000816841F0804181607047000010B501213E
:101850008C028AB0204600F049FE0121204600F0AB
:1018600051FE0021204600F04DFE002406944FF466
:1018700080300994CDE9070406A8FFF761FF8DF8D1
:10188000044000948DF80540029404940120064C15
:101890008DF8140069462046FFF772FF01212046AB
:1018A000FFF743FF0AB010BD00220140FEE7000031
:1018B000094CA06802F0CCFEE06802F0C9FE206985
:1018C00002F0C6FE606902F0C3FEA06902F0C0FE2D
:1018D000E06902F0F9FCECE7000000202DE9F0419E
:1018E0001E461746069C00F017FA4FF4FA75284674
:1018F00001F03CFC22463146384600F0BBF910B1FD
:101900000320BDE8F0810CA0FEF71EFD4FF4FA6045
:1019100001F02CFC0CA10DA000F00AFB38B10FA0C7
:10192000FEF712FD284601F021FC0220E9E710A095
:10193000FEF70AFD0020E4E7C1ACBDD3544350B329
:10194000C9B9A60D0A0000004F4B000041542B43BB
:1019500049504D4F44453D310D0A0000C9E8D6C3FA
:10196000CDB8B4ABC4A3CABDCAA7B0DC0D0A000091
:10197000C9E8D6C3CDB8B4ABC4A3CABDB3C9B9A670
:101980000D0A00009FED061AC0EE010AB7EE000A2C
:1019900030EE600ADFED030A20EE200A70470000F7
:1019A00000F07F450000C8429FED041AC0EE010A16
:1019B0009FED030A20EE800A7047000000F07F458B
:1019C000333353401CB503F0A7FA01A9684600F071
:1019D00007F8012801D001201CBD00201CBD00001B
:1019E0002DE9F0472DED048B9CB08A46804664219A
:1019F00002A8FEF767FE002400F0E6F800F082F887
:101A0000012864D000F0B6F860F30704814600F0C6
:101A1000B1F8054665F30F2400F0ACF8074667F30C
:101A2000174400F0A7F860F31F64064600F0A2F820
:101A3000014609EB0500BA191044C0B288424BD1E7
:101A4000284603F0FFFE9FED259B53EC192B03F076
:101A5000A1FD41EC180BE0B203F0F4FE53EC182B9F
:101A600003F0F0FC03F0BCFCC8F80000200E03F00B
:101A7000E9FE53EC192B03F08DFD41EC180BC4F378
:101A8000074003F0DFFE53EC182B03F0DBFC03F000
:101A9000A7FC0646CAF80000D8F8000004F024F8B5
:101AA00004460D46304604F01FF841EC100B0DA122
:101AB00053EC102B02A8CDE90045FEF751FC02A81B
:101AC00001F030F8642102A8FEF7FCFD00201CB0F4
:101AD000BDEC048BBDE8F0870120F8E700000000B2
:101AE00000002440506172616D732874656D703A16
:101AF000252E32663B68756D693A252E32663B7D30
:101B0000290D0A0070B503F007FA00F5FA744FF4D6
:101B10008076174D03E003F0FFF9A0421DD2314655
:101B2000284600F0C7FA0128F5D003F0F5F900F5D2
:101B3000487403E003F0F0F9A0420ED23146284683
:101B400000F0B8FA0028F5D003F0E6F900F51674B5
:101B500005E003F0E1F9A04201D3012070BD314658
:101B6000284600F0A7FA0128F3D0002070BD00003D
:101B7000000802402DE9F0410025124E2C464FF49A
:101B800080773946304600F095FA0028F9D02D20AC
:101B900001F008FB6006040E3946304600F08AFA70
:101BA000012801D144F001043946304600F082FAA0
:101BB0000128F9D06D1CEDB2082DE2D32046BDE816
:101BC000F08100000008024070B5084D4FF48074A9
:101BD0002146284600F075FA142002F03FFB21460A
:101BE0002846BDE8704000F06EBA000000080240D0
:101BF00000F01CF84FF0FF350B4C4FF4FA7603F071
:101C00008BF900232A461946206A02F0BDFEFFF731
:101C1000D9FE00231A461946206A02F0CBFF30464F
:101C200002F01CFBEBE70000000000207CB5012166
:101C3000042000F037FC01208DF8040000218DF80D
:101C400005108DF80600094D4FF480748DF80700DB
:101C500000946946284600F0E1F94FF47A7001F0EB
:101C600085FA2146284600F02EFA7CBD0008024085
:101C700070470000F0B59BB00B460092024600246E
:101C800013A101A8FEF76CFB01A800F04BFF17A001
:101C9000FEF75AFB4FF4FA770026184D09E0322080
:101CA00001F064FA641CA4B2BC4202D301201BB050
:101CB000F0BD28780028F2D02E7011A11148FEF74F
:101CC00050FC0028F5D010A0FEF73EFB0020EEE708
:101CD00041542B43495053544152543D22257322C1
:101CE0002C222573222C25640D0A0000B7FECEF1AC
:101CF000C6F7C1ACBDD3D6D02E2E2E0001000020D9
:101D00004F4B0000E8000020B7FECEF1C6F7C1AC93
:101D1000BDD3B3C9B9A60000F0B599B00E460546CB
:101D2000002464216846FEF7CDFC20A120A000F02D
:101D3000FFF822A16846FEF726FC23A16846FEF7BD
:101D400046FC29466846FEF742FC20A16846FEF79D
:101D50003EFC31466846FEF73AFC1DA16846FEF798
:101D600036FC684600F0DEFE1AA0FEF7EDFA4FF4EE
:101D7000FA7700261B4D09E0322001F0F7F9641CC8
:101D8000A4B2BC4202D3012019B0F0BD28780028CB
:101D9000F2D02E7005A11448FEF7E3FB0028F5D021
:101DA00012A0FEF7D1FA0020EEE700004F4B000032
:101DB00041542B43575141500D0A000041542B43CD
:101DC000574A41503D00000022000000222C220012
:101DD000220D0A00C8C8B5E3C1ACBDD3D6D02E2EA3
:101DE0002E00000001000020E8000020574946496D
:101DF000C1ACBDD3B3C9B9A6000000002DE9F843BA
:101E0000884681461D4616461FA120A0089C00F06A
:101E10008FF808B100F0B4F84FF47A77384601F043
:101E2000A5F919A11BA000F083F8384601F09EF92E
:101E300015A11BA000F07CF828B11DA0FEF784FAC4
:101E40000320BDE8F8831EA0FEF77EFA4FF4FA7077
:101E500001F08CF92B463246414648460094FFF784
:101E60003DFD1DA0FEF770FA07A122A000F060F86A
:101E700020B124A0FEF768FA0420E2E726A0FEF7CE
:101E800063FA0020DDE700004F4B000041540D0ACB
:101E90000000000041542B5253540D0A0000000072
:101EA00041542B43574D4F44453D330D0A0000002C
:101EB00043574D4F4445206572726F720D0A000002
:101EC000C9E8D6C3BFCDBBA7B6CBC4A3CABDB3C9EF
:101ED000B9A60D0A000000004553503832363620AE
:101EE000485454502053657420537563636573736D
:101EF0000D0A000041542B43495053454E440D0AEE
:101F00000000000041542B43495053454E44206586
:101F100072726F720D0A0000B7A2CBCDCAFDBEDD92
:101F2000D6B8C1EED6B4D0D0B3C9B9A60D0A000058
:101F30002DE9F0418846002400F0F4FD322001F044
:101F400015F94FF4FA7700260B4D09E0052001F052
:101F50000DF9641CA4B2BC4202D30120BDE8F0819B
:101F600028780028F2D02E7041460448FEF7F9FA8E
:101F70000028F5D00020F1E701000020E800002053
:101F800010B504A000F0CEFDBDE8104002A0FEF7A1
:101F9000DBB900002B2B2B00B9D8B1D5D4DA5443D0
:101FA00050B7FECEF1C6F7B5C4B7A2D1D42E2E2EAF
:101FB000000000007CB501210A2000F073FA4FF404
:101FC0004050009002208DF8040003208DF8050099
:101FD00000208DF806000F4C8DF80700694620465A
:101FE00000F01CF880210C4D00916946284600F055
:101FF00015F802220C21204600F04CF802220D2197
:10200000204600F047F802220721284600F042F857
:102010007CBD0000000C024000040240F0B500222C
:1020200001274FF0030C0B6807FA02F52B40AB4277
:102030002CD1066853000CFA03F4A64306600E790F
:10204000D0F800E09E4046EA0E0606600E79012EAA
:1020500001D0022E12D18668A64386604E79D0F850
:1020600008E09E4046EA0E0686604668AE4346603B
:1020700045688E799640B6B235434560C568A5433C
:10208000C560CC799C40C3681C43C460521C102AB4
:10209000C9D3F0BD4B07DB0E9A40C90810B500EB61
:1020A0008100016A0F249C40A1430162016A11432F
:1020B000016210BD0246002012690A4200D00120D0
:1020C00070474183704701837047000010B50A4C88
:1020D0000146072301222046FFF778FB2046FFF741
:1020E000AFFB02212046FFF744FB0028F9D0204631
:1020F000BDE81040FFF73ABB002201402DE9F04156
:102100002DED028B00F046FB9FED348A344E354FA7
:10211000002440213046FFF7D6FF142001F042F89A
:1021200040213046FFF7CDFF02F0F6FE00F5FA75CC
:1021300003E002F0F1FEA84217D220213046FFF75B
:10214000B9FF0028F5D00021384600F0ABFC012192
:10215000384600F0D0FB641C02F0DEFE00F5FA7594
:1021600009E002F0D9FEA84205D3B7EE000ABDECA3
:10217000028BBDE8F08120213046FFF79BFF01284C
:10218000EFD00021384600F0B6FB384600F0BDFB2A
:10219000154D81B2287800EB4002C2EBC01001EB74
:1021A000C00003F04FFB9FED111B53EC112B03F00C
:1021B000F1F903F015F900EE100A0A49002030EE9B
:1021C000088A243108602870642000F0CFFF052CB5
:1021D0009FD1F1EE040A88EE200AC8E70000000053
:1021E00000000240000400405800002000000000F1
:1021F00000004D409AB0174D4FF0FF364FF47A77FC
:10220000002332461946686A02F0BEFBFFF776FFEC
:1022100010EE104A64216846FEF754FA204603F097
:1022200063FC41EC100B0CA153EC102B6846FEF73D
:1022300097F8684600F076FC64216846FEF742FA9B
:1022400000231A461946686A02F0B4FC384602F0C8
:1022500005F8D5E700000020484353523034286881
:1022600063737230343A2566636D3B7D290D0A0035
:102270004FF47A7400F01EF8204601F0EFFFF9E702
:102280001CB50121082000F00DF900208DF8040094
:102290008DF806000420009001208DF80700022030
:1022A0008DF8050069460248FFF7B8FE1CBD000026
:1022B0000008024010B59AB0FFF7E2FF0F4C04216E
:1022C0002046FFF7F7FE98B104212046FFF7F2FE03
:1022D00001280BD10AA20BA16846FEF741F8684617
:1022E00000F020FC64216846FEF7ECF91AB010BD3E
:1022F00064216846FEF7E6F909A2ECE7000802400F
:102300007965730048554D454E5241592868756DA1
:10231000656E5261793A25733B7D290D0A000000F4
:102320006E6F2100FEE700007CB50121202000F047
:10233000B9F801208DF8040000228DF80620032151
:102340008DF80510074D4FF4C0648DF80700009418
:1023500069462846FFF762FE21462846FFF7B3FE8E
:102360007CBD0000001402404FF47A7400F01AF8AB
:10237000204601F073FFF9E71CB50121202000F091
:1023800091F88020009003208DF8040000208DF843
:10239000070069460248FFF741FEFFF757FA1CBDE8
:1023A0000014024030B599B0FFF7E6FF00252C4637
:1023B0000520FFF78BFE0544052000F0D7FE641CC6
:1023C000E4B20A2CF4D30A20B5FBF0F04FF47A61A2
:1023D000884200D908462821B0FBF1F0C0F1640022
:1023E000C2B206A16846FDF7BBFF684600F09AFB43
:1023F00064216846FEF766F919B030BD4C4947487C
:1024000054286C696768743A25643B7D290D0A007D
:10241000FEE7704730B50F23C27801780125FAB185
:10242000144A126801F1E02102F4E062C2F5E062B0
:10243000C2F30722C2F10404D3404278A240847858
:102440001C401443220181F80024007800F01F0191
:102450008D404009800000F1E020C0F8005130BDFF
:1024600001F01F0085404809800000F1E020C0F81D
:10247000805130BD0CED00E002490843024908607C
:10248000704700000000FA050CED00E0044932201E
:102490000860091D08606420091D0860704700007D
:1024A00034080040044A0029116801D0014300E0CB
:1024B000814311607047000030380240044A00290F
:1024C000116801D0014300E08143116070470000B2
:1024D00040380240044A0029116801D0014300E05D
:1024E000814311607047000020380240044A0029EF
:1024F000116801D0014300E0814311607047000082
:1025000044380240044A0029116801D0014300E028
:1025100081431160704700002438024070B5204BA1
:102520001968204C11F00C0104D06610042903D066
:10253000082903D004601BE0066019E0184A121F46
:102540001168C1F38055116801F03F0115B1B6FB68
:10255000F1F101E0B4FBF1F114681268C4F38814DE
:102560006143C2F30142521C5200B1FBF2F101601F
:1025700019680F2202EA11110B4A545C0168E1400C
:1025800041601C68072505EA9424145D21FA04F4CF
:1025900084601B6805EA5333D25CD140C16070BDD2
:1025A000083802400024F400640000200CB500222A
:1025B000274900920192086840F4803008604FF487
:1025C000A043086800F4003001900098401C00907F
:1025D000019810B900989842F3D10868800334D567
:1025E000012001901A484030026842F08052026097
:1025F0001848026842F440420260154808300268F8
:102600000260026842F400420260026842F4A05292
:102610000260031F104A1A600A6842F080720A6062
:102620000A689201FCD50D4940F205720A60016802
:1026300021F003010160016841F0020101600168BD
:10264000C1F381010229FAD10CBD01920CBD000039
:10265000003802400070004008544007003C02402F
:102660000146014800F01CBA002000404FF0E02174
:102670000428086903D020F004000861704740F086
:102680000400FAE710B502F039FC012803D0BDE8D8
:10269000104002F015B910BD124810B5016841F4A0
:1026A000700101601048016841F0010101600E4AAB
:1026B00000210832116002680C4B1A400260031DB1
:1026C0000B4A1A60026822F48022026006480C302D
:1026D0000160FFF76BFF03494FF00060803908602D
:1026E00010BD000088ED00E000380240FFFFF6FE5C
:1026F000103000242DE9F0438846814601218BB03B
:102700000846FFF7CFFE01210802FFF7D7FE1F4F53
:10271000092207213846FFF7BDFC802002250090E2
:102720008DF8045003208DF8050000248DF8064034
:1027300001268DF8076069463846FFF76FFCADF853
:102740000880ADF80A40ADF81040114CCDF80C905F
:1027500002A9204600F0A8F96020ADF81400ADF8F9
:102760002050ADF8166005A9204600F0E5F80821D4
:10277000204600F011F90121204600F0AFF80121B8
:10278000204600F0B8F80BB0BDE8F083000002402E
:102790000020004070B586B001210220FFF78EFEB8
:1027A00001210846FFF77EFE012540208DF80450E8
:1027B000002400908DF806400220214E8DF805007F
:1027C00069463046FFF72AFC40213046FFF779FC86
:1027D00020208DF8044000908DF80740694630466F
:1027E000FFF71CFC20213046FFF76BFC40F2E7307E
:1027F00003905320ADF80800ADF81040ADF80A4042
:10280000104C02A9204600F04FF90121204600F0AB
:102810006FF801221146204600F085F81D208DF842
:1028200014008DF815508DF816508DF8175005A826
:10283000FFF7F0FD0021204600F05DF806B070BD06
:10284000000002400004004010B5084C0121204661
:1028500000F05DF8002807D00121204600F048F87C
:1028600003480178491C017010BD000000040040BD
:102870005800002030B589B001210420FFF71EFE6A
:1028800040F2E73006905320ADF814000024124DBA
:10289000ADF81C40ADF8164005A9284600F004F933
:1028A0006020ADF800000120ADF802000294ADF800
:1028B0000C406946284600F03FF86946284600F07B
:1028C00071F86946284600F0ADF80121284600F06D
:1028D00012F809B030BD000000080040002901884E
:1028E00002D041F0800101E021F0800101807047B9
:1028F000C943018270470029018802D041F00101DB
:1029000001E021F0010101807047406A70470246F2
:102910000020138A92890B4202EA010202D0002AA7
:1029200000D001207047002A828901D00A4300E0CC
:102930008A4382817047000030B5028C22F0010288
:102940000284028C8388048B22F0020224F0730537
:102950000C882C438D8915434A882A430C4DA84284
:1029600002D00C4DA8420DD122F00805CA8923F4EB
:1029700040732A4322F004058A882A430D8A1D43A6
:102980004B8A2B438380048389684163028430BD72
:102990000000014000040140028B22F008020A43BB
:1029A0000283704770B5028C22F010020284028C00
:1029B0008388048B0D8824F4E6464FF6FF7404EAFE
:1029C000052535438E8922F0200204EA06161643B7
:1029D0004A8804EA02123243104EB04202D0104E2E
:1029E000B04215D122F08006CA8923F4406304EA7C
:1029F0000212324322F040068A8804EA021232436D
:102A00000E8A04EA86061E434B8A04EA8303334394
:102A10008380058389688163028470BD0000014062
:102A20000004014070B5028C22F480720284028C92
:102A30008388848B0D8824F0730425438E894FF698
:102A4000FF7422F4007204EA062616434A8804EA58
:102A500002223243104EB04202D0104EB04215D185
:102A600022F40066CA8923F4405304EA0222324366
:102A700022F480668A8804EA022232430E8A04EA3B
:102A800006161E434B8A04EA03133343838085836F
:102A90008968C163028470BD0000014000040140E8
:102AA000416370474162704730B50288164C174D3C
:102AB000A0420DD0A8420BD0B0F1804F08D0144BEB
:102AC000984205D0134B984202D0134B984203D141
:102AD00022F070034A881A43104B984206D0104BDC
:102AE000984203D022F440730A891A4302804A684C
:102AF000C2620A880285A04201D0A84201D1897A27
:102B000001860121818230BD0000014000040140A6
:102B10000004004000080040000C0040001000408D
:102B20000014004070B50446084D0AE08021284694
:102B300000F08AF90028F9D02178284600F01CFA24
:102B4000641C20780028F1D170BD000000480040CE
:102B500070B5134E40F22551304600F07CF9114D0E
:102B6000114C30B1304600F003FA61886854491CBA
:102B7000618040F22441304600F06DF900280ED00B
:102B80003088B0880748FFF7CDFF608800260549E8
:102B90002E5406A0FDF7D8FB01202070668070BD82
:102BA00000100140B00100205400002025730000F7
:102BB0002DE9F041604F40F22551384600F04BF9C5
:102BC0005E4E5F4C3D1D20B1298860883154401C09
:102BD00060802078002824D15AA15848FDF7C1FC14
:102BE00008B100201BE058A15448FDF7BAFC08B119
:102BF000C82014E055A15148FDF7B3FC0028F7D1D7
:102C000053A14E48FDF7ADFC10B14FF4167006E02D
:102C100050A14A48FDF7A5FC20B140F2E630FFF78D
:102C20001FFD74E04CA14548FDF79BFC08B12069ED
:102C300036E04AA14148FDF794FC08B1206938E02C
:102C400047A13E48FDF78DFC08B1A06828E045A1EA
:102C50003A48FDF786FC08B1A0682AE042A137484F
:102C6000FDF77FFC08B1E0681AE040A13348FDF7AA
:102C700078FC08B1E0681CE03DA13048FDF771FC2C
:102C800008B160690CE03BA12C48FDF76AFC08B173
:102C900060690EE038A12948FDF763FC18B1A0690E
:102CA00001F0D6FC33E035A12448FDF75AFC18B1F9
:102CB000A06901F00FFC2AE031A12048FDF751FC8A
:102CC00078B10020FFF7CCFCA06801F0C1FCE068FF
:102CD00001F0BEFC206901F0BBFC606901F0B8FCAA
:102CE000DDE719A11548FDF73CFC80B14FF4C87031
:102CF000FFF7B6FCA06801F0EDFBE06801F0EAFB2D
:102D0000206901F0E7FB606901F0E4FBD0E740F2E5
:102D10002441384600F09FF800280BD038882888D6
:102D2000608800250549355416A0FDF70DFB0120EC
:102D300060706580BDE8F08100480040E800002038
:102D400000000020630000006F0000003100000060
:102D500032000000330000003900000030000000A5
:102D600064000000660000007900000075000000AB
:102D70006C0000006B000000680000006A000000AA
:102D80007A000000257300000029818902D041F4F7
:102D9000005101E021F4005181817047224910B5B2
:102DA000884206D101211020FFF7ACFB0021102042
:102DB00020E01E49884202D101214C0429E01C492F
:102DC000884202D101218C0423E01A49884202D1B1
:102DD0000121CC041DE01849884202D101210C05D3
:102DE00017E01649884209D101212020FFF78AFB0C
:102DF00000212020BDE81040FFF784BB1049884225
:102E000002D101218C0704E00E4988420AD1012138
:102E100044052046FFF75EFB2046BDE81040002138
:102E2000FFF758BB10BD00000010014000440040F7
:102E300000480040004C0040005000400014014099
:102E400000780040007C00400246002012880A42C0
:102E500000D00120704770B501F01F050126002445
:102E6000C1F3421306FA05F2012B0FD0022B0FD04B
:102E7000838A4FEA11210088134206FA01F600EA1C
:102E8000060001D000B10124204670BD8389F0E71F
:102E9000038AEEE710B5C1F3421301F01F040121CC
:102EA000A140012B07D0022B07D01430002A026862
:102EB00005D00A4304E00C30F8E71030F6E78A4307
:102EC000026010BD7FB50446008A0D46C98820F413
:102ED000405001432182A08941F20C618843A988B6
:102EE0002A8911436A8902431143A181A08A20F4EF
:102EF0004071A8890843A0826846FFF70FFB1A4873
:102F0000844202D01948844201D1039800E002981B
:102F1000A189090400EBC00101EB0010296801D56B
:102F2000490000E08900B0FBF1F06422B0FBF2F14F
:102F300009010B096FF018056B4300EB8300A389AF
:102F40001D044FF0320306D503EBC000B0FBF2F0D6
:102F500000F0070005E003EB0010B0FBF2F000F01A
:102F60000F00084320817FBD001001400014014084
:102F70008088C0F308007047C1F308018180704762
:102F8000FEE7000010B501218CB00846FFF78AFA71
:102F900001214802FFF7AAFA10200A9003208DF8B9
:102FA0002C0000248DF82F400AA91348FFF736F8AB
:102FB0004FF48030CDE90640089406A80994FEF746
:102FC000BFFB8DF8044000948DF8054002940494F2
:102FD00001200A4C8DF8140069462046FEF7D0FB0C
:102FE0000623012204212046FEF7F0FB01212046A2
:102FF000FEF79BFB0CB010BD000002400021014019
:1030000070B5FFF7BFFF174D2846FEF719FC01F01A
:1030100083FF00F5FA7405E001F07EFFA04201D3C2
:10302000012070BD02212846FEF7A3FB0028F3D043
:103030002846FEF79BFB00EE100A0B48B8EE400A4C
:1030400080ED000AFEF7B0FC80ED020A90ED000A68
:10305000FEF798FC80ED010ABCEEC00A10EE100AE3
:10306000C0B270BD00210140480000209AB04FF46A
:103070007A75FFF7C5FF044664216846FDF722FB19
:10308000204602F0DFFB0E4646EC100B044653ECE4
:10309000102B0BA16846FDF763F946EC104B0EA10F
:1030A00053EC102B6846FDF75BF96846FFF73AFDD5
:1030B00064216846FDF706FB284601F0CFF8D8E703
:1030C000CDC1C8C0CAAAB6C8CEAA3A2020252E3281
:1030D0006625250D0A00000048554D534F494C28E0
:1030E00068756D536F696C3A252E326625253B7DD8
:1030F000290D0A0003B401984100009850EAC1204C
:1031000018BF04204A0D18BF40F0010040F2FF72C2
:10311000B2EB515F08BF40F00200012808BF052054
:1031200002B0704730380A2801D2012070470020D1
:103130007047704710B504460420FFF797FA0A4815
:103140004FF47A71047014FB01F1012242804FF0B8
:10315000E020026942F0020202614161016941F02E
:103160000101016110BD00005A00002070B5044645
:1031700001F0C4FE01280CD0094D6888844203D3B5
:10318000B4FBF0F001F06AF86888B4FBF0F100FBE2
:1031900011444FF47A706043BDE8704000F002B80B
:1031A0005A00002070B54FF0E02500216C69094AF3
:1031B000AB6912785043AA699A42FCD002D2A3EBC1
:1031C000020302E0A4EB0206334419441346814291
:1031D000F1D370BD5A00002003490A885206FCD57D
:1031E000C2B28A8070470000001001401CB54FF445
:1031F0004070FFF741F9A820FFF79CFF4FF4E1343E
:10320000204600F0E9FD204600F03CFEFFF78CF878
:10321000134940F2E730FFF76DFA00211148FFF73C
:103220003FFCFEF7C7FEFFF725FBFFF72FF942F241
:10323000B82000900CA310A210A113A0FEF7DEFD91
:103240001349002380220870091D0120CDE90001E7
:1032500010A1134801F026FE01F0B0F900201CBDBA
:103260001F480100002000403139322E3136382EFF
:103270003133372E31333400544350003736353430
:1032800033323031000000004152726F6E73000023
:103290000000002073746172745F7461736B0000CE
:1032A000B53C00082DE9F041184E0F460446F5687C
:1032B0003068001D00F048FE38B9306890F82C10D6
:1032C00001208840316981433161601C07D137B1E9
:1032D0003168BDE8F0410E48091D00F06DBE306850
:1032E0002C44AC424460316805D2B06BBDE8F0417B
:1032F000091D00F049BE706B091D00F045FEB06A63
:10330000844200D2B462BDE8F08100007400002065
:10331000C00800202DE9F041054600F059FE2D4E71
:10332000B068401CB06030682B4F10B1706930B38A
:103330002BE03560B068012827D1002404EB84001D
:1033400007EB800000F012FE641C202CF6D323480B
:1033500000F00CFE2148143000F008FE1F48283011
:1033600000F004FE1D483C3000F000FE1B485030C9
:1033700000F0FCFD194870631430B06305E030685C
:10338000E96AC06A884200D83560706A0121401C31
:1033900070626864E86A326981401143316100EB10
:1033A000800007EB8000291D00F006FE00F04CFEB7
:1033B000706900280CD03068E96AC06A884207D278
:1033C00007494FF080500860BFF34F8FBFF36F8FF6
:1033D000BDE8F08174000020F00500207008002096
:1033E00004ED00E010B500F0F3FD0E4C2068A0B92C
:1033F0000D4800F0BBFD0C48143000F0B7FD0A4842
:10340000E0601430206100221021052001F080FAD4
:10341000206010B105A100F0EDFEBDE8104000F005
:1034200013BE0000B0000020D4080020546D72517B
:103430000000000070B5124E124D1CE001F070F952
:10344000306820B1002401F087FEA4B901E0012416
:10345000F9E700F0BDFDF068C468201D00F074FDC0
:10346000A868401EA8606868401E686000F0ECFD17
:10347000204600F052F868680028DFD170BD0000D7
:10348000AC0800207400002030B4026C0B46002A07
:103490000BD0C1681144C1604468A14201D30168E6
:1034A000C16030BC1846FDF79EB830BC70472DE9AE
:1034B000F041856B174604460026026C82B1C7B105
:1034C000E068FDF790F8E168206C091AE160226875
:1034D000914202D26168081AE060022F16D017E00C
:1034E0002068A8B9606801F091FD06460020606080
:1034F0000EE0A068FDF777F8216CA0680844A06092
:103500006168884204D32068A06001E005B16D1EA7
:103510006D1CA5633046BDE8F08110B50446006B14
:1035200000F0C4FD2046BDE8104000F0BFBD000023
:1035300010484FF4A041420706D0C01D0D4920F0AD
:103540000700411AC1F5A0410B4A00230144C2E91A
:1035500000030839103A21F0070111604B600B603D
:103560000B1AC0E9001393604FF000405360D06025
:1035700070470000FC080020E0000020074E4FF0DC
:103580008054074DFFF756FF30680128FAD92C60A8
:10359000BFF34F8FBFF36F8FF4E70000F0050020FB
:1035A00004ED00E02DE9F047DDE909840E461746F9
:1035B000824691009946089DA522206BFDF758F898
:1035C0006FF00301206B01EB8701084420F007072F
:1035D000780705D040F22B3219A11EA0FCF7B4FEEB
:1035E00000202218315C82F83410315C11B1401C8B
:1035F0001028F6D3002684F84360202D00D31F2521
:10360000E562C4E91356201D00F0BBFC04F118006C
:1036100000F0B7FC2461C5F120006462A06166651A
:1036200084F858604A465146384600F02DFB206029
:10363000B8F1000F01D0C8F80040BDE8F0870000E5
:103640002E2E5C4672656552544F535C7461736BE9
:10365000732E63004572726F723A25732C25640DC8
:103660000A00000030B5114900E011460A688242A4
:10367000FBD34B685C18844203D14068184448600F
:10368000084643681C18944209D1084C103C246831
:10369000A24209D052681A4442600A681268026065
:1036A000814200D0086030BD0460F9E7E0000020EE
:1036B00070B5002441600B4D0061914206D8D11ACB
:1036C0008269914206D2011D286907E09A4203D21D
:1036D000994201D3012403E0011DE86800F054FC85
:1036E000204670BDB000002010B5044600F070FC0C
:1036F000A06B20B1002400F0A7FC204610BD0124DF
:10370000F9E700002DE9F34100980F460026846C8C
:103710002CB940F6CE1216A11AA0FCF715FEA06B2C
:10372000E16B884205D340F6CF1211A115A0FCF73A
:103730000BFEA06BE16B88420CD294F945503A46DF
:1037400069462046FFF7B3FE0646681C05D06D1C8F
:1037500084F845503046BDE8FC81606A0028F9D005
:1037600004F1240001F0ACFC0028F3D00126F1E7BD
:103770002E2E5C4672656552544F535C71756575AB
:10378000652E63004572726F723A25732C25640DA5
:103790000A000000F8B5054614480E46C068C06827
:1037A000C468201D00F0D0FBE069012817D1A06992
:1037B0002B46411932462046FFF77AFF78B10020A8
:1037C0000346014600902A46204601F0ABFD30B981
:1037D00007494FF4027201F11800FCF7B5FD616A68
:1037E00001B02046BDE8F04008470000B0000020CE
:1037F0008852000870B586B02F4E53E0019800281B
:1038000006DADDE90301029A90470198002849DBB6
:10381000039C606910B1201D00F096FB05A800F024
:10382000A7F8054601980A283CD2DFE800F0050514
:10383000053B273805053B270298A169034601444B
:103840002A462046FFF734FF00282BD0616A204625
:103850008847E069012825D1002000900298A169DD
:10386000002342181946204601F05CFDD0B940F211
:10387000213212A117A0FCF767FD13E00298A061A6
:1038800028B94FF44E720DA112A0FCF75DFDA0699E
:103890002B4641191A462046FFF70AFF02E0204650
:1038A00000F004FC00231A4601A9306801F06CF80E
:1038B0000028A3D106B070BDB00000202E2E5C46BB
:1038C00072656552544F535C74696D6572732E63F3
:1038D000000000004572726F723A25732C25640D4A
:1038E0000A000000F8B50D46064600F019FF6846CC
:1038F00000F03EF80446009810B101F02DFCF8BD30
:103900001148ADB101690968D9B10025311B2A46BA
:10391000006800F081FC01F01FFC0028EFD10B498A
:103920004FF080500860BFF34F8FBFF36F8FF8BD2B
:10393000A642EBD801F010FC21463046FFF72AFFE3
:10394000F8BD0125E2E70000B000002004ED00E032
:103950000648416B096829B1416BC968C968496863
:10396000816270474FF0FF31FAE7000074000020D9
:1039700070B5054601F0D0FA064E0446B0688442A0
:1039800003D200F009F8012000E000202860204662
:10399000B46070BDB0000020F8B5184E26E0C068D5
:1039A000C4680568201D00F0CFFA616A2046884788
:1039B000E06901281AD1A0692844A84206D92461E7
:1039C0006060211DF06800F0DFFA0FE00020034680
:1039D000014600902A46204601F0A4FC30B908496F
:1039E00040F2923201F11800FCF7AEFCF068016879
:1039F0000029D4D13169C6E90310F8BDB000002018
:103A00008852000808484068401C05D040F20F1258
:103A100006A111A0FCF798FC502080F31188BFF399
:103A20004F8FBFF36F8FFEE7C40000202E2E5C4641
:103A300072656552544F535C706F727461626C654D
:103A40005C525644535C41524D5F434D34465C706A
:103A50006F72742E630000004572726F723A2573A4
:103A60002C25640D0A00000070B50025040005D166
:103A700040F2816207A10CA0FCF766FC0E49606968
:103A8000884205D1A06A2839884201D000B90125B1
:103A9000284670BD2E2E5C4672656552544F535CAD
:103AA0007461736B732E63004572726F723A257383
:103AB0002C25640D0A000000C0080020084CE068B6
:103AC000016839B1002139B10020FFF70BFFFFF782
:103AD00091FEF4E70121F6E7C0680068F5E7000011
:103AE000B00000202DE9F041044600F071FA94F98D
:103AF000455004F1240610E0A06C20B100212046BE
:103B0000FFF700FE04E0606A48B1304601F0D8FAE1
:103B100008B100F03FFC6D1E6DB2002DECDC4FF0E3
:103B2000FF3684F8456000F08FFA00F051FA94F9FE
:103B3000445004F1100709E0206948B1384601F00B
:103B4000BFFA08B100F026FC6D1E6DB2002DF3DC4B
:103B500084F84460BDE8F04100F076BA2DE9F04108
:103B60000546002600F0DCFD324F386808B9FFF743
:103B7000DFFCF86805424FD1002D4DD008356807AD
:103B80000BD005F00700C0F108000544680704D019
:103B9000BF2229A132A0FCF7D7FB002D3CD07868CA
:103BA000854239D8234910310846046801E021468E
:103BB00004466068A84202D220680028F7D138681D
:103BC000B846844228D00E682068086060680836CD
:103BD000401B10280ED96719780704D0EC2216A1D3
:103BE0001FA0FCF7B1FB6068401B78603846656039
:103BF000FFF738FD6168D8F804004246401AC8F85B
:103C00000400D8F80830984200D29060D8F80C0030
:103C100001430020C4E9000101F09EFA700705D0BD
:103C20004FF4967204A10EA0FCF78EFB3046BDE85F
:103C3000F0810000D00000202E2E5C467265655297
:103C4000544F535C706F727461626C655C4D656D4E
:103C50004D616E675C686561705F342E63000000C3
:103C60004572726F723A25732C25640D0A000000AC
:103C70000449086818B10868026D521C026508689A
:103C8000704700007400002010B5031F4FF08074CF
:103C90001C601B1F21F001011960191F044B0B60F0
:103CA00014390A60091F6FF0020244380A6010BD1F
:103CB000053A00087CB500F08BF9012000F016FEF3
:103CC0002C4C2062012000F011FE6062012000F007
:103CD0000DFEA062012000F009FEE062012000F06C
:103CE00005FE206304F108010720CDE9000100234F
:103CF0004FF4807220A1234801F0D4F804F10C00A5
:103D00000625CDE90050002380221FA1204801F0A4
:103D1000C9F804F11000CDE90050002380221DA154
:103D20001F4801F0BFF804F11400CDE90050002352
:103D300080221CA11E4801F0B5F804F11800CDE95D
:103D40000050002380221BA11E4801F0ABF804F1B3
:103D50001C010820CDE90001002380221AA11D4882
:103D600001F0A0F8606800F0AFFABDE87C4000F018
:103D70006BB900000000002044485431315F746189
:103D8000736B0000F11B0008594C5F7461736B008A
:103D90006D3000084843535230345F7461736B00D8
:103DA000F52100084C53454E535F7461736B00005E
:103DB00069230008484353523530315F7461736B97
:103DC0000000000071220008434C4F53455F7461AE
:103DD000736B0000B1180008F0B50746012187B0E9
:103DE0000846FEF75FFB01211020FEF77FFB234E04
:103DF000072209213046FEF74DF907220A213046F5
:103E0000FEF748F94FF4C060049002208DF81400CA
:103E10008DF8150000248DF8164001258DF81750F7
:103E200004A93046FEF7FAF8ADF808400C20144E0D
:103E3000ADF80440ADF80A000097ADF80640ADF8C3
:103E40000C4069463046FFF73DF801213046FEF749
:103E50009BFF012240F225513046FFF71BF8252039
:103E60008DF8180006208DF819008DF81A408DF88D
:103E70001B5006A8FEF7CEFA07B0F0BD00000240C6
:103E8000001001402DE9F041804688B00121022058
:103E9000FEF708FB01218804FEF710FB284D284699
:103EA000FEF77CFF274E07220B213046FEF7F2F883
:103EB00007220A213046FEF7EDF802218DF8141092
:103EC0008DF815104FF44060002404908DF81640D2
:103ED00001278DF8177004A93046FEF79FF8ADF85A
:103EE00008400C20ADF80440ADF80A00CDF8008081
:103EF000ADF80640ADF80C4069462846FEF7E2FFF3
:103F000001212846FEF740FF27208DF818000620E3
:103F10008DF819008DF81A408DF81B7006A8FEF771
:103F200079FA012240F225512846FEF7B3FF01221B
:103F300040F224412846FEF7ADFF08B0BDE8F0810D
:103F40000048004000040240D0E9013201699A6053
:103F5000D0E901235A604A68824201D182684A60EE
:103F6000002202610868401E0860704700F10801E5
:103F70004FF0FF32C0E90112C16001610021016010
:103F8000704700210161704730B50C68621C02D097
:103F900000F1080202E0026904E01A4653681D6855
:103FA000A542FAD953684B6099608A6051600861F4
:103FB0000168491C016030BD42684A6093688B60AB
:103FC00093685960916008610168491C01607047FD
:103FD000502080F31188BFF34F8FBFF36F8F0949D3
:103FE0004868401C486001280AD10748006810F062
:103FF000FF0F05D040F2B91204A10FA0FCF7A4B93D
:1040000070470000C400002004ED00E02E2E5C4646
:1040100072656552544F535C706F727461626C6567
:104020005C525644535C41524D5F434D34465C7084
:104030006F72742E630000004572726F723A2573BE
:104040002C25640D0A00000010B5084C606828B9E2
:104050004FF4E07206A111A0FCF776F96068401EEB
:10406000606001D180F3118810BD0000C400002001
:104070002E2E5C4672656552544F535C706F72749D
:1040800061626C655C525644535C41524D5F434DD6
:1040900034465C706F72742E630000004572726F5C
:1040A000723A25732C25640D0A00000070B50028B3
:1040B0002AD0164DA0F108046068E968084205D1CD
:1040C0004FF4A07212A11CA0FCF73EF9206828B1A1
:1040D00040F241120EA118A0FCF736F96068E968B9
:1040E000084211D02268002A0ED18843606000F097
:1040F00017FB60686968084468602046FFF7B2FAF9
:10410000BDE8704001F028B870BD0000D00000206C
:104110002E2E5C4672656552544F535C706F7274FC
:1041200061626C655C4D656D4D616E675C68656173
:10413000705F342E630000004572726F723A25730F
:104140002C25640D0A00000006484FF47A710068BF
:10415000B0FBF1F14FF0E020491E41610721016100
:10416000704700003400002010B5FCF7C7F8104C71
:1041700010280CD300F1E02090F8F0032178884259
:1041800005D24FF440720BA115A0FCF7DDF81848DA
:104190000068A16800F4E060884207D9BDE81040DB
:1041A0004FF4447203A10EA0FCF7CEB810BD00007E
:1041B000C40000202E2E5C4672656552544F535C3D
:1041C000706F727461626C655C525644535C41520C
:1041D0004D5F434D34465C706F72742E6300000077
:1041E0004572726F723A25732C25640D0A00000027
:1041F0000CED00E010B5074B002253F832401CB123
:10420000521C082AF9D310BD43F8321003EBC20147
:10421000486010BDB005002070B515460E46044636
:10422000FFF7D6FE94F944100020491C01D184F810
:10423000440094F94510491C01D184F84500FFF76A
:1042400003FFA06B28B92A46314604F1240000F090
:10425000D1F82046BDE87040FFF744BC10B504001B
:1042600012D00E49096B29B140F2CF420CA111A026
:10427000FCF76AF800F054FA00212046FFF712F824
:1042800000F06AFF002807D10E494FF08050086007
:10429000BFF34F8FBFF36F8F10BD0000740000207D
:1042A0002E2E5C4672656552544F535C7461736B7D
:1042B000732E63004572726F723A25732C25640D5C
:1042C0000A00000004ED00E070B50446FFF780FE30
:1042D000234D04B92C68201DFFF736FE58B9E06A5B
:1042E000204A00EB800152F8211021B901218140C0
:1042F000286988432861A06A18B104F11800FFF703
:1043000023FE686A401C68622868844207D1211D28
:104310001548FFF751FE6868401C686007E0A86810
:10432000401EA8602046FFF7F8F8FFF711FBFFF7E3
:104330008BFE6869002812D0286884420FD1286B50
:1043400028B140F2654209A10DA0FBF7FDFF10491D
:104350004FF080500860BFF34F8FBFF36F8F70BD79
:1043600074000020F0050020AC0800202E2E5C46D2
:1043700072656552544F535C7461736B732E6300A6
:104380004572726F723A25732C25640D0A00000085
:1043900004ED00E001490120C8617047740000206D
:1043A00070B50D46040005D140F6063207A10CA0F9
:1043B000FBF7CAFF0E48016820461831FFF7E4FDFD
:1043C0002846BDE870400121FEF76CBF2E2E5C46EA
:1043D00072656552544F535C7461736B732E630046
:1043E0004572726F723A25732C25640D0A00000025
:1043F0007400002070B514460E46050005D140F645
:10440000313209A10DA0FBF79FFF10480168284633
:104410001831FFF7D1FD0CB14FF0FF362146304681
:10442000BDE87040FEF73EBF2E2E5C4672656552B9
:10443000544F535C7461736B732E63004572726FDB
:10444000723A25732C25640D0A00000074000020C8
:1044500070B5040039D01D4DE06A2968C96A8842E8
:1044600033D2A069002804DB2868C06AC0F12000AC
:10447000A061E06A164E00EB8000616906EB8000E7
:1044800081421FD1201DFFF75FFD012150B9E06A75
:1044900000EB800256F8222022B92A6901FA00F0C6
:1044A00082432A612868C06AE0622A698140114318
:1044B000296100EB800006EB8000211DBDE8704003
:1044C000FFF77ABD2868C06AE06270BD7400002002
:1044D000F005002070B504002BD01A4D28688442E6
:1044E0002FD0FFF775FD2046FFF7BEFAE8B1201D7B
:1044F000FFF72AFDE06A01212A6981401143296101
:10450000114900EB800001EB8000211DFFF754FDF5
:10451000E06A2968C96A884207D30C494FF0805085
:104520000860BFF34F8FBFF36F8FBDE87040FFF798
:104530008BBDBDE8704040F2AB6205A109A0FBF75E
:1045400003BF70BD74000020F005002004ED00E002
:104550002E2E5C4672656552544F535C7461736BCA
:10456000732E63004572726F723A25732C25640DA9
:104570000A00000010B5040005D140F6C13205A1C3
:1045800009A0FBF7E1FE0C48016A2160C068606089
:1045900010BD00002E2E5C4672656552544F535C70
:1045A0007461736B732E63004572726F723A257378
:1045B0002C25640D0A000000740000201CB517486B
:1045C0000024CDE900402346822215A1164800F0C0
:1045D00069FC012803D100F06BFE01280AD0401CC1
:1045E0001BD102B040F28472BDE810400FA114A0AC
:1045F000FBF7AABE502080F31188BFF34F8FBFF3A3
:104600006F8F06484FF0FF312C38816201214161E4
:10461000C460BDE81C4000F0C9B81CBDA00000206B
:1046200049444C45000000007D3500082E2E5C46B4
:1046300072656552544F535C7461736B732E6300E3
:104640004572726F723A25732C25640D0A000000C2
:1046500070B50446FFF7BCFC244D04B92C68201D3E
:10466000FFF772FC58B9E06A214A00EB800152F86A
:10467000211021B901218140286988432861A06A5D
:1046800018B104F11800FFF75FFC211D1948FFF76E
:1046900093FCFFF7D9FC686928B1FFF799FCFFF795
:1046A00057F9FFF7D1FC2868844211D1686980B1BD
:1046B000286B28B140F257620FA114A0FBF744FE0B
:1046C00016494FF080500860BFF34F8FBFF36F8FD4
:1046D00070BD0848A9680068884202D1002028609F
:1046E00070BDBDE8704000F023B8000074000020E9
:1046F000F0050020C00800202E2E5C467265655231
:10470000544F535C7461736B732E63004572726F08
:10471000723A25732C25640D0A00000004ED00E0B8
:104720000248016B491C01637047000074000020BF
:1047300070B5134D286B10B10120E86170BD0020E9
:10474000E86128690F4EB0FA80F0C0F11F0000EB5D
:10475000800456F8240028B940F6F6220AA10FA0DA
:10476000FBF7F2FD06EB840000F10802416849689E
:104770004160914201D149684160C868286070BDBC
:1047800074000020F00500202E2E5C4672656552F4
:10479000544F535C7461736B732E63004572726F78
:1047A000723A25732C25640D0A0000001CB5304CAC
:1047B00020683049884205D140F259122EA139A013
:1047C000FBF7C2FD20682B49491E884205D14FF4F2
:1047D000AD7229A133A0FBF7B7FD364C20780190CC
:1047E000FF20207020788DF800009DF800009DF8D3
:1047F000001000F0F000884205D040F273121EA1B4
:1048000028A0FBF7A1FD9DF800002B4A00F0500006
:1048100010700720906007E09068401E90609DF83F
:10482000000040008DF800009DF800000006F3D461
:10483000107A000200F4E0609060019820700C484B
:104840002030016841F470010160016841F070415D
:104850000160FFF779FC00205060FBF717FD174857
:10486000016841F040410160FBF700FD00201CBDE4
:1048700000ED00E071C20F412E2E5C46726565525C
:10488000544F535C706F727461626C655C52564435
:10489000535C41524D5F434D34465C706F72742ED1
:1048A000630000004572726F723A25732C25640D07
:1048B0000A00000000E400E0C400002034EF00E043
:1048C00010B5502080F31188BFF34F8FBFF36F8F67
:1048D00000F028FB18B104494FF080500860002018
:1048E00080F3118810BD000004ED00E010B5024611
:1048F0000021012000F00CF8041E07D000214160C7
:1049000001600B460A46C16000F054F9204610BD14
:104910002DE9F04117460E46050005D14FF4C4724B
:1049200010A115A0FBF710FDBEB105FB06F0543039
:10493000FFF714F904000ED004F154007EB120609A
:10494000C4E90F562046012100F0E0F884F85070C9
:1049500000212046A164BDE8F0810020E7E7246043
:10496000EEE700002E2E5C4672656552544F535C94
:1049700071756575652E63004572726F723A2573A5
:104980002C25640D0A0000002DE9FF4F83B09B46E3
:104990008A4604004FF0000605D140F2DC4251A1E6
:1049A00055A0FBF7D1FCBAF1000F07D1206C28B15C
:1049B00040F2DD424BA150A0FBF7C6FC00F09EFA8E
:1049C00038B9059828B14FF49C6246A14AA0FBF77C
:1049D000BBFC4FF000094FF08057DFF82C81FFF748
:1049E000F7FAA56B45B351462046E668FEF74CFD45
:1049F000BBF1000F13D0E660606A50B104F12400EF
:104A000000F05EFB28B1C8F80070BFF34F8FBFF312
:104A10006F8FFFF719FB012007B0BDE8F08F6D1E07
:104A2000A563206810B9FFF723F9606020690028AA
:104A3000EFD004F11000E3E7059808B11EB106E0DD
:104A4000FFF702FB27E06846FFF794FD0126FFF71A
:104A5000FBFAFFF765FEFFF7BBFA94F94400401C30
:104A600001D184F8449094F94500401C01D184F8A8
:104A70004590FFF7E9FA05A9684600F0CFF900284C
:104A800020460AD0FFF72EF800F066FB2046FEF71E
:104A90002BFE0028A3D00020BEE7FEF725FED8B1EC
:104AA000206830B9FFF794FA6068FFF7D1FCFFF790
:104AB000CBFA04F124000599FFF772FC2046FFF7BA
:104AC00011F800F049FB002889D1C8F80070BFF345
:104AD0004F8FBFF36F8F82E72046FFF703F800F098
:104AE0003BFB7CE72E2E5C4672656552544F535C4F
:104AF00071756575652E63004572726F723A257324
:104B00002C25640D0A00000004ED00E070B50D4690
:104B1000040005D140F21B121CA121A0FBF714FCDC
:104B2000FFF756FAD4E90F20216802FB00116160FB
:104B30000021A1632168A1600A46D4E90F01401E4B
:104B400000FB0121E16021464FF0FF3001F8440FE6
:104B5000487004F110004DB1FFF708FA04F1240089
:104B6000FFF704FAFFF770FA012070BD21690029F0
:104B7000F8D000F0A5FA0028F4D00D494FF080508D
:104B80000860BFF34F8FBFF36F8FEBE72E2E5C46AD
:104B900072656552544F535C71756575652E63007F
:104BA0004572726F723A25732C25640D0A0000005D
:104BB00004ED00E02DE9FF4F83B099468B460400D9
:104BC0004FF0000605D140F2D92252A156A0FBF7C2
:104BD000BBFBBBF1000F07D1206C28B140F2DA22F9
:104BE0004CA151A0FBF7B0FBB9F1020F08D1E06B6B
:104BF000012805D040F2DB2246A14BA0FBF7A4FB25
:104C000000F07CF938B9059828B140F2DE2241A1C4
:104C100045A0FBF799FB4FF0000A4FF08057DFF8F3
:104C20001881FFF7D5F9A06BE16B884206D3B9F183
:104C3000020F03D0059800B316B325E04A46594643
:104C40002046FEF734FCA16C21B149462046FEF710
:104C500059FD05E0616A19B104F1240000F030FA51
:104C600028B1C8F80070BFF34F8FBFF36F8FFFF705
:104C7000EBF9012007B0BDE8F08FFFF7E5F921E07F
:104C80006846FFF777FC0126FFF7DEF9FFF748FDDE
:104C9000FFF79EF994F94400401C01D184F844A028
:104CA00094F94500401C01D184F845A0FFF7CCF9E8
:104CB00005A9684600F0B2F830B12046FEF712FFB1
:104CC00000F04AFA0020D5E7FFF782F9A06BE16B0C
:104CD000884201D1012500E00025FFF7B5F995B123
:104CE00004F110000599FFF75BFB2046FEF7FAFE82
:104CF00000F032FA002894D1C8F80070BFF34F8F4B
:104D0000BFF36F8F8DE72046FEF7ECFE00F024FA2C
:104D100087E700002E2E5C4672656552544F535C47
:104D200071756575652E63004572726F723A2573F1
:104D30002C25640D0A00000004ED00E02DE9F04789
:104D4000984615468946040005D140F29F322AA1B3
:104D50002EA0FBF7F9FAB9F1000F07D1206C28B1AA
:104D60004FF4687224A129A0FBF7EEFAB8F1020F04
:104D700008D1E06B012805D040F2A1321EA123A08A
:104D8000FBF7E2FAFFF7F0F95020EFF3118780F319
:104D90001188BFF34F8FBFF36F8FA06BE16B884219
:104DA00007D3B8F1020F04D0002087F31188BDE8C3
:104DB000F08794F94560424649462046FEF777FB66
:104DC000701C04D0761C84F845600120EDE7A06CCF
:104DD000012620B141462046FEF794FC06E0606AB9
:104DE0000028F2D004F1240000F06AF90028ECD089
:104DF000002DEAD02E60E8E72E2E5C4672656552E3
:104E0000544F535C71756575652E63004572726F02
:104E1000723A25732C25640D0A00000070B50D460A
:104E2000040005D140F6CB3214A119A0FBF78CFA8F
:104E30002DB940F6CC3211A115A0FBF785FAFFF78A
:104E4000C7F8174AD06829684B1C0FD02368126A2C
:104E5000934202D0626882420AD96268801A88420C
:104E600006D2081A28602046FFF784FB002400E0E1
:104E70000124FFF7E9F8204670BD00002E2E5C46A5
:104E800072656552544F535C7461736B732E63008B
:104E90004572726F723A25732C25640D0A0000006A
:104EA000740000202DE9FF5F8346DDE90E879946F7
:104EB00016468A469000FEF751FE05001AD05C2087
:104EC000FEF74CFE040012D025630021CDE902411B
:104ED000CDE900874B46324651465846FEF762FB05
:104EE0002046FEF717FA012004B0BDE8F09F2846DF
:104EF000FFF7DCF84FF0FF30F6E7000005484169A6
:104F000019B1006B18B100207047012070470220D2
:104F100070470000740000200148C068704700001E
:104F2000740000202DE9F0412D4F0026386B40B170
:104F3000B869401CB861F86900B101263046BDE887
:104F4000F081FD686D1CFD6011D1786B006828B19F
:104F500040F6D91223A128A0FBF7F6F9786BB96BBC
:104F60007963B863386A401C3862FEF7F1FCB86AAE
:104F7000DFF89480854209D3786B006880B1786B44
:104F8000C068C468606885420DD2B8623868C06A7B
:104F900000EB800158F821000128CCD90126CAE78E
:104FA0004FF0FF30F1E7201DFEF7CEFFA06A18B1E9
:104FB00004F11800FEF7C8FFE06A01213A69814058
:104FC0001143396100EB800108EB8100211DFEF7E0
:104FD000F3FFE06A3968C96A8842CDD30126CBE77E
:104FE000740000202E2E5C4672656552544F535C4F
:104FF0007461736B732E63004572726F723A25731E
:105000002C25640D0A000000F005002070B5040096
:105010004FF000063CD01F4D2868844205D040F672
:10502000C7621DA121A0FBF78FF9206D28B940F6BA
:10503000C96219A11DA0FBF787F9206D401E2065EC
:10504000E26CE16A914223D010BB201DFEF77CFF89
:105050001A49012250B9E06A00EB800351F823306D
:1050600023B92B6902FA00F083432B61E06CE06204
:10507000C0F12000A061E06A2B6982401A432A61D6
:1050800000EB800001EB8000211DFEF795FF01265B
:10509000304670BD740000202E2E5C46726565524D
:1050A000544F535C7461736B732E63004572726F5F
:1050B000723A25732C25640D0A000000F0050020CB
:1050C0002DE9F041C068C4682CB940F6613216A1E0
:1050D0001AA0FBF739F904F118000746FEF734FF70
:1050E0001A4D286B012660B139461948FEF764FF56
:1050F000E06A2968C96A884213D90120EE61BDE8D7
:10510000F081201DFEF720FFE06A2A6906FA00F10F
:10511000114329610F4900EB800001EB8000211D44
:10512000E4E70020EBE700002E2E5C467265655236
:10513000544F535C7461736B732E63004572726FCE
:10514000723A25732C25640D0A00000074000020BB
:1051500098080020F00500202DE9F0472B4D002491
:105160002746286B28B94FF4FD6229A12DA0FBF733
:10517000EBF8FEF72DFF286B401E2863286BE8BB79
:10518000A8682C490126C8B3A1F52A798846D8F821
:105190000010E9B1D8F80C00C46804F11800FEF75B
:1051A000D3FE201DFEF7D0FEE06A2A6906FA00F160
:1051B0001143296100EB800109EB8100211DFEF7FD
:1051C000FBFEE06A2968C96A8842E0D3EE61DEE747
:1051D0000CB1FEF7BDFBAC693CB1FFF7A3FE00B11B
:1051E000EE61641EF9D10020A861E86930B112496E
:1051F000012738070860BFF34F8F00E001E0BFF3DD
:105200006F8FFEF721FF3846BDE8F087740000205D
:105210002E2E5C4672656552544F535C7461736BFD
:10522000732E63004572726F723A25732C25640DDC
:105230000A0000009808002004ED00E02DE9F04786
:105240000746994616460D462C20DDF820A0FEF7AD
:1052500085FC040014D0B8464F46D1462DB94FF412
:10526000C67209A10EA0FBF76FF8FEF7BBF804F1B8
:105270001801C4F8008081E8E002201DFEF781FEDD
:105280002046BDE8F08700002E2E5C467265655210
:10529000544F535C74696D6572732E630000000097
:1052A0004572726F723A25732C25640D0A00000056
:1052B0001CB50024FEF796F80C48006868B10B494D
:1052C0001F20091DCDE9000100234FF4827208A1BF
:1052D0000948FFF7E7FD040005D140F2331207A1AA
:1052E0000CA0FBF731F820461CBD0000B0000020E8
:1052F000546D722053766300BD3A00082E2E5C4632
:1053000072656552544F535C74696D6572732E6398
:10531000000000004572726F723A25732C25640DEF
:105320000A0000002DE9FF47DDF830A099469046BD
:105330000D4606004FF0000705D14FF4D37212A1BD
:1053400017A0FBF701F81A4C206880B1CDE900588E
:105350000296062D11DAFFF7D1FD02284FF0000367
:1053600009D0002269462068FFF724FC074604B0F4
:105370003846BDE8F0875246F4E700234A466946BE
:10538000FFF7DCFCF2E700002E2E5C4672656552EA
:10539000544F535C74696D6572732E630000000096
:1053A0004572726F723A25732C25640D0A00000055
:1053B000B000002010B500290AD00878002807D0D6
:1053C00005487844FBF7B6FD002801D0002010BD49
:1053D0000248784410BD0000D6080000CE08000046
:1053E00021F00042A2F16052B2F5801F01F00043AB
:1053F00028BFD2F17F6C0BD95FEA001C43EAC202DE
:1054000042EB507018BF704728BF20F00100704772
:10541000B2F5801FBCBF184670474FEA410C1CF51F
:10542000001F02D2084600F0D5BB70B500F01DFA8F
:1054300000000089FFF7F6BF4FF00040A0F58000A4
:105440007047000010B591EA030F48BF83F0004396
:1054500000F16882841A71EB030C05D2121943EB38
:105460000C03001B61EB0C01DFF824E14FEA11543F
:10547000A4EB135C1EEA430F18BF9EEA445F73D08F
:1054800023EA0E03DCF1200E21EA045143F48013D9
:1054900032D322FA0CFE10EB0E0023FA0CFE41EB85
:1054A0000E01CCF1200E03FA0EFE10EB0E0051F1AE
:1054B0000001B1F5801FCCF1200E32D201EB045176
:1054C00012FA0EF2BDE8104058BF7047401C38BFBA
:1054D0005FEA420218BF7047002814BF20F00100A5
:1054E00041F100014FEA410313F5001F38BF704737
:1054F000A1F1C04100F007BA012A43EB0302ACF16D
:10550000200CDCF11F0E32BF4FF0000E23FA0CF31B
:1055100010EB030041EB0451B4EB115FD0D0A1EBD1
:10552000045101F5801149085FEA300001EB045194
:105530000ED350F1000038BF12FA0EFE08D1BDE8BC
:105540001040C9E7401C38BF5FEA4202CAD1C3E736
:10555000BDE810404FEA410313F5001F38BF704704
:10556000A1F1C04100F0CFB99EEA445F08D011EA32
:105570005E0FBDE8104004BF01F0004100207047FD
:10558000BDE8104070B500F070F900BF64FBBE3E8E
:105590000000E0FF2DE9C04130B4DFF8A0C23CEAD2
:1055A000111418BF3CEA131400F0EC8081EA0305E3
:1055B0001CEA111444EAD57418BF1CEA131500F054
:1055C000C780A4EB05044FF0004545EAC12145EA38
:1055D000C32341EA505143EA525304F17F74994284
:1055E00004F500344FEAC0204FEAC22208BF9042BF
:1055F00000F09C804FEA13650FF24016765D4FEA8B
:10560000134506FB05F7C7F1807706FB07F74FEA5E
:10561000D737A7FB03687642C8F58038A7FB06CECC
:1056200038BFA8F1010807FB08E64FF0000EA6FB03
:10563000028CE6FB03CEDCF1000CCEF1004E38BF4D
:10564000AEF1010EA6FB0C584FF000074FF000051D
:10565000E6FB0E87A1FB08C6A0FB07CE16EB0E06E5
:1056600045F10005E1FB076515F1E04E7EBFA4F5AD
:1056700080345FEA46066D4116F1800745F100056A
:105680004FEA17274FEA066647EA0567A6F1DE46A6
:10569000B6F1805F4FEA15251FD9384624F0010C7A
:1056A00005EBC471BCF1FE6F01EB0C1102D8F0BC2C
:1056B000BDE8008124425CBF01F5801E9EEAC47FE4
:1056C00002D4F0BCBDE80081244238D4F0BCA1F182
:1056D000C041BDE8004100F016B94FEAD22242EACB
:1056E00043524FEAD323A7FB02864FEAD02040EA79
:1056F000415007FB03661EEA0E0F4FEAD12105FB5E
:10570000026658BFA6EB0056B6EB00564FEA520EA3
:105710004EEAC37E18EB0E0E56EB530EBDD518EBBA
:1057200002085E417F1C55F10005B6E74FF4801575
:105730004FF000074FF000064FF00008ADE7F0BC57
:105740004FF0000001F1C04101F00041BDE80081CF
:1057500011EA0C1F0CEA131500D00CE013EA0C1F21
:1057600000F025804FF00000F0BC81EA030101F059
:105770000041BDE80081F0BCBDE8004181EA0301C1
:1057800000F0C1B8F0BCBDE8004170B500F06DF8A4
:10579000097EFC3E00F007B881EA03014FF00000EB
:1057A00001F00041704781EA030100F0ACB8F0BCA1
:1057B000BDE800414FF0000021497047FFFDFBF9B3
:1057C000F7F5F4F2F0EEEDEBE9E8E6E4E3E1E0DE34
:1057D000DDDBDAD8D7D5D4D3D1D0CFCDCCCBCAC8A6
:1057E000C7C6C5C4C2C1C0BFBEBDBCBBBAB9B8B7CD
:1057F000B6B5B4B3B2B1B0AFAEADACABAAA9A8A8C0
:10580000A7A6A5A4A3A3A2A1A09F9F9E9D9C9C9B8D
:105810009A99999897979695959493939291919038
:105820008F8F8E8E8D8C8C8B8B8A898988888787C9
:105830008685858484838382828181800000FF073E
:105840000000F87FB0FA80F310FA03F10AD0C3F138
:105850001D0303F580634FEA41504FEA035202EB08
:10586000D12170474FF0000070470EF1020E2EF06C
:10587000030E5EF8046B364205D4012A43EB0305A0
:1058800015F5001F12D8012841EB010C1CF5001F73
:105890000CD80ED14FEAD17C15F5001F0CEB4C0C47
:1058A0000CF1020C08BF4CEBD37C04E04FF0080C69
:1058B00001E04FEAD37C0CEB4C0526FA05F606F026
:1058C0000706B6F1040C06D20EEB860CBDE870405C
:1058D0004CF0010C6047DFE80CF0090B02024FF0BE
:1058E00000414FF00000A1F5002170BD194610469F
:1058F000012851EB010418BFD4F5001484BF002027
:1059000001F0004170BD0808A0F500114FEA310117
:105910007047000010B591EA030F48BF83F00043C1
:105920003FF598AD841A71EB030C07D212198CF075
:10593000004C43EB0C03001B61EB0C01DFF8A4E10E
:105940004FEA1154A4EB135C1EEA430F18BF9EEA02
:10595000445F00F0B08023EA6E03524221EA045112
:10596000C3EB6E0338BF5B1EDCF1200E25D322FA99
:105970000CFE10EB0E0043FA0CFE41EB0E01CCF1D5
:10598000200E03FA0EFE10EB0E0051F10001CCF1D7
:10599000200E29D412FA0EF201EB0451BDE810409A
:1059A00058BF7047401C1CBFB2F1004F7047002821
:1059B0000CBF491C20F00100704712EB020E43EBB4
:1059C000030218BF4FF0010E4EEA4202ACF1200C68
:1059D000DCF11E0E54D943FA0CFE10EB0E0051F10F
:1059E000FF31CCF11E0ED5D50EF1010E12FA0EFECE
:1059F000404141EB010101EB445C5FEA5C5C10D982
:105A000010EBDE7001EB045138BFBEF1004FBDE872
:105A1000104018BF704700280CBF491C20F001003F
:105A2000704730D24FEAD42C11F5001124F40064F1
:105A30001BD0B1FA81F20B3AA41AA41ED2F12003B2
:105A4000914030FA03F31943904001EBCC71002CE4
:105A500001EB0451BDE81040A8BF704701F1C041FF
:105A60004FF0000001F000417047B0FA80F310FAE7
:105A700003F100D110BDE41A173C4805C90AE4E758
:105A800001EB045110BD491001EB0451BDE8104079
:105A90004FEA300002E04FF0000170474A0008BFB3
:105AA0000042F8D0B2F5001F28BF704701F0004156
:105AB0004FF0000070479EEA445F07D011EA5E0F86
:105AC000BDE8104004BF002100207047BDE8104031
:105AD00070B5FFF7CAFE00BF40DFF63E83F000411D
